{
  "contractName": "MusicalNFT",
  "abi": [
    {
      "inputs": [],
      "stateMutability": "nonpayable",
      "type": "constructor"
    },
    {
      "anonymous": false,
      "inputs": [
        {
          "indexed": true,
          "internalType": "address",
          "name": "owner",
          "type": "address"
        },
        {
          "indexed": true,
          "internalType": "address",
          "name": "approved",
          "type": "address"
        },
        {
          "indexed": true,
          "internalType": "uint256",
          "name": "tokenId",
          "type": "uint256"
        }
      ],
      "name": "Approval",
      "type": "event"
    },
    {
      "anonymous": false,
      "inputs": [
        {
          "indexed": true,
          "internalType": "address",
          "name": "owner",
          "type": "address"
        },
        {
          "indexed": true,
          "internalType": "address",
          "name": "operator",
          "type": "address"
        },
        {
          "indexed": false,
          "internalType": "bool",
          "name": "approved",
          "type": "bool"
        }
      ],
      "name": "ApprovalForAll",
      "type": "event"
    },
    {
      "anonymous": false,
      "inputs": [
        {
          "indexed": true,
          "internalType": "address",
          "name": "from",
          "type": "address"
        },
        {
          "indexed": true,
          "internalType": "address",
          "name": "to",
          "type": "address"
        },
        {
          "indexed": true,
          "internalType": "uint256",
          "name": "tokenId",
          "type": "uint256"
        }
      ],
      "name": "Transfer",
      "type": "event"
    },
    {
      "inputs": [
        {
          "internalType": "address",
          "name": "to",
          "type": "address"
        },
        {
          "internalType": "uint256",
          "name": "tokenId",
          "type": "uint256"
        }
      ],
      "name": "approve",
      "outputs": [],
      "stateMutability": "nonpayable",
      "type": "function"
    },
    {
      "inputs": [
        {
          "internalType": "address",
          "name": "owner",
          "type": "address"
        }
      ],
      "name": "balanceOf",
      "outputs": [
        {
          "internalType": "uint256",
          "name": "",
          "type": "uint256"
        }
      ],
      "stateMutability": "view",
      "type": "function",
      "constant": true
    },
    {
      "inputs": [
        {
          "internalType": "uint256",
          "name": "tokenId",
          "type": "uint256"
        }
      ],
      "name": "getApproved",
      "outputs": [
        {
          "internalType": "address",
          "name": "",
          "type": "address"
        }
      ],
      "stateMutability": "view",
      "type": "function",
      "constant": true
    },
    {
      "inputs": [
        {
          "internalType": "address",
          "name": "owner",
          "type": "address"
        },
        {
          "internalType": "address",
          "name": "operator",
          "type": "address"
        }
      ],
      "name": "isApprovedForAll",
      "outputs": [
        {
          "internalType": "bool",
          "name": "",
          "type": "bool"
        }
      ],
      "stateMutability": "view",
      "type": "function",
      "constant": true
    },
    {
      "inputs": [
        {
          "internalType": "uint256",
          "name": "",
          "type": "uint256"
        }
      ],
      "name": "musicData",
      "outputs": [
        {
          "internalType": "string",
          "name": "name",
          "type": "string"
        },
        {
          "internalType": "string",
          "name": "artist",
          "type": "string"
        },
        {
          "internalType": "string",
          "name": "image",
          "type": "string"
        },
        {
          "internalType": "string",
          "name": "ipfsHash",
          "type": "string"
        }
      ],
      "stateMutability": "view",
      "type": "function",
      "constant": true
    },
    {
      "inputs": [],
      "name": "name",
      "outputs": [
        {
          "internalType": "string",
          "name": "",
          "type": "string"
        }
      ],
      "stateMutability": "view",
      "type": "function",
      "constant": true
    },
    {
      "inputs": [
        {
          "internalType": "uint256",
          "name": "tokenId",
          "type": "uint256"
        }
      ],
      "name": "ownerOf",
      "outputs": [
        {
          "internalType": "address",
          "name": "",
          "type": "address"
        }
      ],
      "stateMutability": "view",
      "type": "function",
      "constant": true
    },
    {
      "inputs": [
        {
          "internalType": "address",
          "name": "from",
          "type": "address"
        },
        {
          "internalType": "address",
          "name": "to",
          "type": "address"
        },
        {
          "internalType": "uint256",
          "name": "tokenId",
          "type": "uint256"
        }
      ],
      "name": "safeTransferFrom",
      "outputs": [],
      "stateMutability": "nonpayable",
      "type": "function"
    },
    {
      "inputs": [
        {
          "internalType": "address",
          "name": "from",
          "type": "address"
        },
        {
          "internalType": "address",
          "name": "to",
          "type": "address"
        },
        {
          "internalType": "uint256",
          "name": "tokenId",
          "type": "uint256"
        },
        {
          "internalType": "bytes",
          "name": "data",
          "type": "bytes"
        }
      ],
      "name": "safeTransferFrom",
      "outputs": [],
      "stateMutability": "nonpayable",
      "type": "function"
    },
    {
      "inputs": [
        {
          "internalType": "address",
          "name": "operator",
          "type": "address"
        },
        {
          "internalType": "bool",
          "name": "approved",
          "type": "bool"
        }
      ],
      "name": "setApprovalForAll",
      "outputs": [],
      "stateMutability": "nonpayable",
      "type": "function"
    },
    {
      "inputs": [
        {
          "internalType": "bytes4",
          "name": "interfaceId",
          "type": "bytes4"
        }
      ],
      "name": "supportsInterface",
      "outputs": [
        {
          "internalType": "bool",
          "name": "",
          "type": "bool"
        }
      ],
      "stateMutability": "view",
      "type": "function",
      "constant": true
    },
    {
      "inputs": [],
      "name": "symbol",
      "outputs": [
        {
          "internalType": "string",
          "name": "",
          "type": "string"
        }
      ],
      "stateMutability": "view",
      "type": "function",
      "constant": true
    },
    {
      "inputs": [],
      "name": "tokenCounter",
      "outputs": [
        {
          "internalType": "uint256",
          "name": "",
          "type": "uint256"
        }
      ],
      "stateMutability": "view",
      "type": "function",
      "constant": true
    },
    {
      "inputs": [
        {
          "internalType": "uint256",
          "name": "tokenId",
          "type": "uint256"
        }
      ],
      "name": "tokenURI",
      "outputs": [
        {
          "internalType": "string",
          "name": "",
          "type": "string"
        }
      ],
      "stateMutability": "view",
      "type": "function",
      "constant": true
    },
    {
      "inputs": [
        {
          "internalType": "address",
          "name": "from",
          "type": "address"
        },
        {
          "internalType": "address",
          "name": "to",
          "type": "address"
        },
        {
          "internalType": "uint256",
          "name": "tokenId",
          "type": "uint256"
        }
      ],
      "name": "transferFrom",
      "outputs": [],
      "stateMutability": "nonpayable",
      "type": "function"
    },
    {
      "inputs": [
        {
          "internalType": "string",
          "name": "_name",
          "type": "string"
        },
        {
          "internalType": "string",
          "name": "_artist",
          "type": "string"
        },
        {
          "internalType": "string",
          "name": "_image",
          "type": "string"
        },
        {
          "internalType": "string",
          "name": "_ipfsHash",
          "type": "string"
        }
      ],
      "name": "mintNFT",
      "outputs": [],
      "stateMutability": "nonpayable",
      "type": "function"
    }
  ],
  "bytecode": "0x60806040523480156200001157600080fd5b506040518060400160405280600781526020017f4d6f6f64696679000000000000000000000000000000000000000000000000008152506040518060400160405280600481526020017f4d4f4f440000000000000000000000000000000000000000000000000000000081525081600090816200008f91906200032c565b508060019081620000a191906200032c565b505050600060068190555062000413565b600081519050919050565b7f4e487b7100000000000000000000000000000000000000000000000000000000600052604160045260246000fd5b7f4e487b7100000000000000000000000000000000000000000000000000000000600052602260045260246000fd5b600060028204905060018216806200013457607f821691505b6020821081036200014a5762000149620000ec565b5b50919050565b60008190508160005260206000209050919050565b60006020601f8301049050919050565b600082821b905092915050565b600060088302620001b47fffffffffffffffffffffffffffffffffffffffffffffffffffffffffffffffff8262000175565b620001c0868362000175565b95508019841693508086168417925050509392505050565b6000819050919050565b6000819050919050565b60006200020d620002076200020184620001d8565b620001e2565b620001d8565b9050919050565b6000819050919050565b6200022983620001ec565b62000241620002388262000214565b84845462000182565b825550505050565b600090565b6200025862000249565b620002658184846200021e565b505050565b5b818110156200028d57620002816000826200024e565b6001810190506200026b565b5050565b601f821115620002dc57620002a68162000150565b620002b18462000165565b81016020851015620002c1578190505b620002d9620002d08562000165565b8301826200026a565b50505b505050565b600082821c905092915050565b60006200030160001984600802620002e1565b1980831691505092915050565b60006200031c8383620002ee565b9150826002028217905092915050565b6200033782620000b2565b67ffffffffffffffff811115620003535762000352620000bd565b5b6200035f82546200011b565b6200036c82828562000291565b600060209050601f831160018114620003a457600084156200038f578287015190505b6200039b85826200030e565b8655506200040b565b601f198416620003b48662000150565b60005b82811015620003de57848901518255600182019150602085019450602081019050620003b7565b86831015620003fe5784890151620003fa601f891682620002ee565b8355505b6001600288020188555050505b505050505050565b612d0f80620004236000396000f3fe608060405234801561001057600080fd5b50600436106101005760003560e01c806370a0823111610097578063c87b56dd11610066578063c87b56dd146102c0578063d082e381146102f0578063e985e9c51461030e578063eec905711461033e57610100565b806370a082311461023a57806395d89b411461026a578063a22cb46514610288578063b88d4fde146102a457610100565b806323b872dd116100d357806323b872dd1461019f57806339fe5c4c146101bb57806342842e0e146101ee5780636352211e1461020a57610100565b806301ffc9a71461010557806306fdde0314610135578063081812fc14610153578063095ea7b314610183575b600080fd5b61011f600480360381019061011a9190611b3d565b61035a565b60405161012c9190611b85565b60405180910390f35b61013d61043c565b60405161014a9190611c30565b60405180910390f35b61016d60048036038101906101689190611c88565b6104ce565b60405161017a9190611cf6565b60405180910390f35b61019d60048036038101906101989190611d3d565b610514565b005b6101b960048036038101906101b49190611d7d565b61062b565b005b6101d560048036038101906101d09190611c88565b61068b565b6040516101e59493929190611dd0565b60405180910390f35b61020860048036038101906102039190611d7d565b6108db565b005b610224600480360381019061021f9190611c88565b6108fb565b6040516102319190611cf6565b60405180910390f35b610254600480360381019061024f9190611e31565b610981565b6040516102619190611e6d565b60405180910390f35b610272610a38565b60405161027f9190611c30565b60405180910390f35b6102a2600480360381019061029d9190611eb4565b610aca565b005b6102be60048036038101906102b99190612029565b610ae0565b005b6102da60048036038101906102d59190611c88565b610b42565b6040516102e79190611c30565b60405180910390f35b6102f8610baa565b6040516103059190611e6d565b60405180910390f35b610328600480360381019061032391906120ac565b610bb0565b6040516103359190611b85565b60405180910390f35b6103586004803603810190610353919061218d565b610c44565b005b60007f80ac58cd000000000000000000000000000000000000000000000000000000007bffffffffffffffffffffffffffffffffffffffffffffffffffffffff1916827bffffffffffffffffffffffffffffffffffffffffffffffffffffffff1916148061042557507f5b5e139f000000000000000000000000000000000000000000000000000000007bffffffffffffffffffffffffffffffffffffffffffffffffffffffff1916827bffffffffffffffffffffffffffffffffffffffffffffffffffffffff1916145b80610435575061043482610d03565b5b9050919050565b60606000805461044b90612293565b80601f016020809104026020016040519081016040528092919081815260200182805461047790612293565b80156104c45780601f10610499576101008083540402835291602001916104c4565b820191906000526020600020905b8154815290600101906020018083116104a757829003601f168201915b5050505050905090565b60006104d982610d6d565b6004600083815260200190815260200160002060009054906101000a900473ffffffffffffffffffffffffffffffffffffffff169050919050565b600061051f826108fb565b90508073ffffffffffffffffffffffffffffffffffffffff168373ffffffffffffffffffffffffffffffffffffffff160361058f576040517f08c379a000000000000000000000000000000000000000000000000000000000815260040161058690612336565b60405180910390fd5b8073ffffffffffffffffffffffffffffffffffffffff166105ae610db8565b73ffffffffffffffffffffffffffffffffffffffff1614806105dd57506105dc816105d7610db8565b610bb0565b5b61061c576040517f08c379a0000000000000000000000000000000000000000000000000000000008152600401610613906123c8565b60405180910390fd5b6106268383610dc0565b505050565b61063c610636610db8565b82610e79565b61067b576040517f08c379a00000000000000000000000000000000000000000000000000000000081526004016106729061245a565b60405180910390fd5b610686838383610f0e565b505050565b60076020528060005260406000206000915090508060000180546106ae90612293565b80601f01602080910402602001604051908101604052809291908181526020018280546106da90612293565b80156107275780601f106106fc57610100808354040283529160200191610727565b820191906000526020600020905b81548152906001019060200180831161070a57829003601f168201915b50505050509080600101805461073c90612293565b80601f016020809104026020016040519081016040528092919081815260200182805461076890612293565b80156107b55780601f1061078a576101008083540402835291602001916107b5565b820191906000526020600020905b81548152906001019060200180831161079857829003601f168201915b5050505050908060020180546107ca90612293565b80601f01602080910402602001604051908101604052809291908181526020018280546107f690612293565b80156108435780601f1061081857610100808354040283529160200191610843565b820191906000526020600020905b81548152906001019060200180831161082657829003601f168201915b50505050509080600301805461085890612293565b80601f016020809104026020016040519081016040528092919081815260200182805461088490612293565b80156108d15780601f106108a6576101008083540402835291602001916108d1565b820191906000526020600020905b8154815290600101906020018083116108b457829003601f168201915b5050505050905084565b6108f683838360405180602001604052806000815250610ae0565b505050565b60008061090783611207565b9050600073ffffffffffffffffffffffffffffffffffffffff168173ffffffffffffffffffffffffffffffffffffffff1603610978576040517f08c379a000000000000000000000000000000000000000000000000000000000815260040161096f906124c6565b60405180910390fd5b80915050919050565b60008073ffffffffffffffffffffffffffffffffffffffff168273ffffffffffffffffffffffffffffffffffffffff16036109f1576040517f08c379a00000000000000000000000000000000000000000000000000000000081526004016109e890612558565b60405180910390fd5b600360008373ffffffffffffffffffffffffffffffffffffffff1673ffffffffffffffffffffffffffffffffffffffff168152602001908152602001600020549050919050565b606060018054610a4790612293565b80601f0160208091040260200160405190810160405280929190818152602001828054610a7390612293565b8015610ac05780601f10610a9557610100808354040283529160200191610ac0565b820191906000526020600020905b815481529060010190602001808311610aa357829003601f168201915b5050505050905090565b610adc610ad5610db8565b8383611244565b5050565b610af1610aeb610db8565b83610e79565b610b30576040517f08c379a0000000000000000000000000000000000000000000000000000000008152600401610b279061245a565b60405180910390fd5b610b3c848484846113b0565b50505050565b6060610b4d82610d6d565b6000610b5761140c565b90506000815111610b775760405180602001604052806000815250610ba2565b80610b8184611423565b604051602001610b929291906125b4565b6040516020818303038152906040525b915050919050565b60065481565b6000600560008473ffffffffffffffffffffffffffffffffffffffff1673ffffffffffffffffffffffffffffffffffffffff16815260200190815260200160002060008373ffffffffffffffffffffffffffffffffffffffff1673ffffffffffffffffffffffffffffffffffffffff16815260200190815260200160002060009054906101000a900460ff16905092915050565b60006006549050604051806080016040528086815260200185815260200184815260200183815250600760008381526020019081526020016000206000820151816000019081610c949190612784565b506020820151816001019081610caa9190612784565b506040820151816002019081610cc09190612784565b506060820151816003019081610cd69190612784565b50905050610ce433826114f1565b60066000815480929190610cf790612885565b91905055505050505050565b60007f01ffc9a7000000000000000000000000000000000000000000000000000000007bffffffffffffffffffffffffffffffffffffffffffffffffffffffff1916827bffffffffffffffffffffffffffffffffffffffffffffffffffffffff1916149050919050565b610d768161150f565b610db5576040517f08c379a0000000000000000000000000000000000000000000000000000000008152600401610dac906124c6565b60405180910390fd5b50565b600033905090565b816004600083815260200190815260200160002060006101000a81548173ffffffffffffffffffffffffffffffffffffffff021916908373ffffffffffffffffffffffffffffffffffffffff160217905550808273ffffffffffffffffffffffffffffffffffffffff16610e33836108fb565b73ffffffffffffffffffffffffffffffffffffffff167f8c5be1e5ebec7d5bd14f71427d1e84f3dd0314c0f7b2291e5b200ac8c7c3b92560405160405180910390a45050565b600080610e85836108fb565b90508073ffffffffffffffffffffffffffffffffffffffff168473ffffffffffffffffffffffffffffffffffffffff161480610ec75750610ec68185610bb0565b5b80610f0557508373ffffffffffffffffffffffffffffffffffffffff16610eed846104ce565b73ffffffffffffffffffffffffffffffffffffffff16145b91505092915050565b8273ffffffffffffffffffffffffffffffffffffffff16610f2e826108fb565b73ffffffffffffffffffffffffffffffffffffffff1614610f84576040517f08c379a0000000000000000000000000000000000000000000000000000000008152600401610f7b9061293f565b60405180910390fd5b600073ffffffffffffffffffffffffffffffffffffffff168273ffffffffffffffffffffffffffffffffffffffff1603610ff3576040517f08c379a0000000000000000000000000000000000000000000000000000000008152600401610fea906129d1565b60405180910390fd5b6110008383836001611550565b8273ffffffffffffffffffffffffffffffffffffffff16611020826108fb565b73ffffffffffffffffffffffffffffffffffffffff1614611076576040517f08c379a000000000000000000000000000000000000000000000000000000000815260040161106d9061293f565b60405180910390fd5b6004600082815260200190815260200160002060006101000a81549073ffffffffffffffffffffffffffffffffffffffff02191690556001600360008573ffffffffffffffffffffffffffffffffffffffff1673ffffffffffffffffffffffffffffffffffffffff168152602001908152602001600020600082825403925050819055506001600360008473ffffffffffffffffffffffffffffffffffffffff1673ffffffffffffffffffffffffffffffffffffffff16815260200190815260200160002060008282540192505081905550816002600083815260200190815260200160002060006101000a81548173ffffffffffffffffffffffffffffffffffffffff021916908373ffffffffffffffffffffffffffffffffffffffff160217905550808273ffffffffffffffffffffffffffffffffffffffff168473ffffffffffffffffffffffffffffffffffffffff167fddf252ad1be2c89b69c2b068fc378daa952ba7f163c4a11628f55a4df523b3ef60405160405180910390a46112028383836001611556565b505050565b60006002600083815260200190815260200160002060009054906101000a900473ffffffffffffffffffffffffffffffffffffffff169050919050565b8173ffffffffffffffffffffffffffffffffffffffff168373ffffffffffffffffffffffffffffffffffffffff16036112b2576040517f08c379a00000000000000000000000000000000000000000000000000000000081526004016112a990612a3d565b60405180910390fd5b80600560008573ffffffffffffffffffffffffffffffffffffffff1673ffffffffffffffffffffffffffffffffffffffff16815260200190815260200160002060008473ffffffffffffffffffffffffffffffffffffffff1673ffffffffffffffffffffffffffffffffffffffff16815260200190815260200160002060006101000a81548160ff0219169083151502179055508173ffffffffffffffffffffffffffffffffffffffff168373ffffffffffffffffffffffffffffffffffffffff167f17307eab39ab6107e8899845ad3d59bd9653f200f220920489ca2b5937696c31836040516113a39190611b85565b60405180910390a3505050565b6113bb848484610f0e565b6113c78484848461155c565b611406576040517f08c379a00000000000000000000000000000000000000000000000000000000081526004016113fd90612acf565b60405180910390fd5b50505050565b606060405180602001604052806000815250905090565b606060006001611432846116e3565b01905060008167ffffffffffffffff81111561145157611450611efe565b5b6040519080825280601f01601f1916602001820160405280156114835781602001600182028036833780820191505090505b509050600082602001820190505b6001156114e6578080600190039150507f3031323334353637383961626364656600000000000000000000000000000000600a86061a8153600a85816114da576114d9612aef565b5b04945060008503611491575b819350505050919050565b61150b828260405180602001604052806000815250611836565b5050565b60008073ffffffffffffffffffffffffffffffffffffffff1661153183611207565b73ffffffffffffffffffffffffffffffffffffffff1614159050919050565b50505050565b50505050565b600061157d8473ffffffffffffffffffffffffffffffffffffffff16611891565b156116d6578373ffffffffffffffffffffffffffffffffffffffff1663150b7a026115a6610db8565b8786866040518563ffffffff1660e01b81526004016115c89493929190612b73565b6020604051808303816000875af192505050801561160457506040513d601f19601f820116820180604052508101906116019190612bd4565b60015b611686573d8060008114611634576040519150601f19603f3d011682016040523d82523d6000602084013e611639565b606091505b50600081510361167e576040517f08c379a000000000000000000000000000000000000000000000000000000000815260040161167590612acf565b60405180910390fd5b805181602001fd5b63150b7a0260e01b7bffffffffffffffffffffffffffffffffffffffffffffffffffffffff1916817bffffffffffffffffffffffffffffffffffffffffffffffffffffffff1916149150506116db565b600190505b949350505050565b600080600090507a184f03e93ff9f4daa797ed6e38ed64bf6a1f0100000000000000008310611741577a184f03e93ff9f4daa797ed6e38ed64bf6a1f010000000000000000838161173757611736612aef565b5b0492506040810190505b6d04ee2d6d415b85acef8100000000831061177e576d04ee2d6d415b85acef8100000000838161177457611773612aef565b5b0492506020810190505b662386f26fc1000083106117ad57662386f26fc1000083816117a3576117a2612aef565b5b0492506010810190505b6305f5e10083106117d6576305f5e10083816117cc576117cb612aef565b5b0492506008810190505b61271083106117fb5761271083816117f1576117f0612aef565b5b0492506004810190505b6064831061181e576064838161181457611813612aef565b5b0492506002810190505b600a831061182d576001810190505b80915050919050565b61184083836118b4565b61184d600084848461155c565b61188c576040517f08c379a000000000000000000000000000000000000000000000000000000000815260040161188390612acf565b60405180910390fd5b505050565b6000808273ffffffffffffffffffffffffffffffffffffffff163b119050919050565b600073ffffffffffffffffffffffffffffffffffffffff168273ffffffffffffffffffffffffffffffffffffffff1603611923576040517f08c379a000000000000000000000000000000000000000000000000000000000815260040161191a90612c4d565b60405180910390fd5b61192c8161150f565b1561196c576040517f08c379a000000000000000000000000000000000000000000000000000000000815260040161196390612cb9565b60405180910390fd5b61197a600083836001611550565b6119838161150f565b156119c3576040517f08c379a00000000000000000000000000000000000000000000000000000000081526004016119ba90612cb9565b60405180910390fd5b6001600360008473ffffffffffffffffffffffffffffffffffffffff1673ffffffffffffffffffffffffffffffffffffffff16815260200190815260200160002060008282540192505081905550816002600083815260200190815260200160002060006101000a81548173ffffffffffffffffffffffffffffffffffffffff021916908373ffffffffffffffffffffffffffffffffffffffff160217905550808273ffffffffffffffffffffffffffffffffffffffff16600073ffffffffffffffffffffffffffffffffffffffff167fddf252ad1be2c89b69c2b068fc378daa952ba7f163c4a11628f55a4df523b3ef60405160405180910390a4611acd600083836001611556565b5050565b6000604051905090565b600080fd5b600080fd5b60007fffffffff0000000000000000000000000000000000000000000000000000000082169050919050565b611b1a81611ae5565b8114611b2557600080fd5b50565b600081359050611b3781611b11565b92915050565b600060208284031215611b5357611b52611adb565b5b6000611b6184828501611b28565b91505092915050565b60008115159050919050565b611b7f81611b6a565b82525050565b6000602082019050611b9a6000830184611b76565b92915050565b600081519050919050565b600082825260208201905092915050565b60005b83811015611bda578082015181840152602081019050611bbf565b60008484015250505050565b6000601f19601f8301169050919050565b6000611c0282611ba0565b611c0c8185611bab565b9350611c1c818560208601611bbc565b611c2581611be6565b840191505092915050565b60006020820190508181036000830152611c4a8184611bf7565b905092915050565b6000819050919050565b611c6581611c52565b8114611c7057600080fd5b50565b600081359050611c8281611c5c565b92915050565b600060208284031215611c9e57611c9d611adb565b5b6000611cac84828501611c73565b91505092915050565b600073ffffffffffffffffffffffffffffffffffffffff82169050919050565b6000611ce082611cb5565b9050919050565b611cf081611cd5565b82525050565b6000602082019050611d0b6000830184611ce7565b92915050565b611d1a81611cd5565b8114611d2557600080fd5b50565b600081359050611d3781611d11565b92915050565b60008060408385031215611d5457611d53611adb565b5b6000611d6285828601611d28565b9250506020611d7385828601611c73565b9150509250929050565b600080600060608486031215611d9657611d95611adb565b5b6000611da486828701611d28565b9350506020611db586828701611d28565b9250506040611dc686828701611c73565b9150509250925092565b60006080820190508181036000830152611dea8187611bf7565b90508181036020830152611dfe8186611bf7565b90508181036040830152611e128185611bf7565b90508181036060830152611e268184611bf7565b905095945050505050565b600060208284031215611e4757611e46611adb565b5b6000611e5584828501611d28565b91505092915050565b611e6781611c52565b82525050565b6000602082019050611e826000830184611e5e565b92915050565b611e9181611b6a565b8114611e9c57600080fd5b50565b600081359050611eae81611e88565b92915050565b60008060408385031215611ecb57611eca611adb565b5b6000611ed985828601611d28565b9250506020611eea85828601611e9f565b9150509250929050565b600080fd5b600080fd5b7f4e487b7100000000000000000000000000000000000000000000000000000000600052604160045260246000fd5b611f3682611be6565b810181811067ffffffffffffffff82111715611f5557611f54611efe565b5b80604052505050565b6000611f68611ad1565b9050611f748282611f2d565b919050565b600067ffffffffffffffff821115611f9457611f93611efe565b5b611f9d82611be6565b9050602081019050919050565b82818337600083830152505050565b6000611fcc611fc784611f79565b611f5e565b905082815260208101848484011115611fe857611fe7611ef9565b5b611ff3848285611faa565b509392505050565b600082601f8301126120105761200f611ef4565b5b8135612020848260208601611fb9565b91505092915050565b6000806000806080858703121561204357612042611adb565b5b600061205187828801611d28565b945050602061206287828801611d28565b935050604061207387828801611c73565b925050606085013567ffffffffffffffff81111561209457612093611ae0565b5b6120a087828801611ffb565b91505092959194509250565b600080604083850312156120c3576120c2611adb565b5b60006120d185828601611d28565b92505060206120e285828601611d28565b9150509250929050565b600067ffffffffffffffff82111561210757612106611efe565b5b61211082611be6565b9050602081019050919050565b600061213061212b846120ec565b611f5e565b90508281526020810184848401111561214c5761214b611ef9565b5b612157848285611faa565b509392505050565b600082601f83011261217457612173611ef4565b5b813561218484826020860161211d565b91505092915050565b600080600080608085870312156121a7576121a6611adb565b5b600085013567ffffffffffffffff8111156121c5576121c4611ae0565b5b6121d18782880161215f565b945050602085013567ffffffffffffffff8111156121f2576121f1611ae0565b5b6121fe8782880161215f565b935050604085013567ffffffffffffffff81111561221f5761221e611ae0565b5b61222b8782880161215f565b925050606085013567ffffffffffffffff81111561224c5761224b611ae0565b5b6122588782880161215f565b91505092959194509250565b7f4e487b7100000000000000000000000000000000000000000000000000000000600052602260045260246000fd5b600060028204905060018216806122ab57607f821691505b6020821081036122be576122bd612264565b5b50919050565b7f4552433732313a20617070726f76616c20746f2063757272656e74206f776e6560008201527f7200000000000000000000000000000000000000000000000000000000000000602082015250565b6000612320602183611bab565b915061232b826122c4565b604082019050919050565b6000602082019050818103600083015261234f81612313565b9050919050565b7f4552433732313a20617070726f76652063616c6c6572206973206e6f7420746f60008201527f6b656e206f776e6572206f7220617070726f76656420666f7220616c6c000000602082015250565b60006123b2603d83611bab565b91506123bd82612356565b604082019050919050565b600060208201905081810360008301526123e1816123a5565b9050919050565b7f4552433732313a2063616c6c6572206973206e6f7420746f6b656e206f776e6560008201527f72206f7220617070726f76656400000000000000000000000000000000000000602082015250565b6000612444602d83611bab565b915061244f826123e8565b604082019050919050565b6000602082019050818103600083015261247381612437565b9050919050565b7f4552433732313a20696e76616c696420746f6b656e2049440000000000000000600082015250565b60006124b0601883611bab565b91506124bb8261247a565b602082019050919050565b600060208201905081810360008301526124df816124a3565b9050919050565b7f4552433732313a2061646472657373207a65726f206973206e6f74206120766160008201527f6c6964206f776e65720000000000000000000000000000000000000000000000602082015250565b6000612542602983611bab565b915061254d826124e6565b604082019050919050565b6000602082019050818103600083015261257181612535565b9050919050565b600081905092915050565b600061258e82611ba0565b6125988185612578565b93506125a8818560208601611bbc565b80840191505092915050565b60006125c08285612583565b91506125cc8284612583565b91508190509392505050565b60008190508160005260206000209050919050565b60006020601f8301049050919050565b600082821b905092915050565b60006008830261263a7fffffffffffffffffffffffffffffffffffffffffffffffffffffffffffffffff826125fd565b61264486836125fd565b95508019841693508086168417925050509392505050565b6000819050919050565b600061268161267c61267784611c52565b61265c565b611c52565b9050919050565b6000819050919050565b61269b83612666565b6126af6126a782612688565b84845461260a565b825550505050565b600090565b6126c46126b7565b6126cf818484612692565b505050565b5b818110156126f3576126e86000826126bc565b6001810190506126d5565b5050565b601f82111561273857612709816125d8565b612712846125ed565b81016020851015612721578190505b61273561272d856125ed565b8301826126d4565b50505b505050565b600082821c905092915050565b600061275b6000198460080261273d565b1980831691505092915050565b6000612774838361274a565b9150826002028217905092915050565b61278d82611ba0565b67ffffffffffffffff8111156127a6576127a5611efe565b5b6127b08254612293565b6127bb8282856126f7565b600060209050601f8311600181146127ee57600084156127dc578287015190505b6127e68582612768565b86555061284e565b601f1984166127fc866125d8565b60005b82811015612824578489015182556001820191506020850194506020810190506127ff565b86831015612841578489015161283d601f89168261274a565b8355505b6001600288020188555050505b505050505050565b7f4e487b7100000000000000000000000000000000000000000000000000000000600052601160045260246000fd5b600061289082611c52565b91507fffffffffffffffffffffffffffffffffffffffffffffffffffffffffffffffff82036128c2576128c1612856565b5b600182019050919050565b7f4552433732313a207472616e736665722066726f6d20696e636f72726563742060008201527f6f776e6572000000000000000000000000000000000000000000000000000000602082015250565b6000612929602583611bab565b9150612934826128cd565b604082019050919050565b600060208201905081810360008301526129588161291c565b9050919050565b7f4552433732313a207472616e7366657220746f20746865207a65726f2061646460008201527f7265737300000000000000000000000000000000000000000000000000000000602082015250565b60006129bb602483611bab565b91506129c68261295f565b604082019050919050565b600060208201905081810360008301526129ea816129ae565b9050919050565b7f4552433732313a20617070726f766520746f2063616c6c657200000000000000600082015250565b6000612a27601983611bab565b9150612a32826129f1565b602082019050919050565b60006020820190508181036000830152612a5681612a1a565b9050919050565b7f4552433732313a207472616e7366657220746f206e6f6e20455243373231526560008201527f63656976657220696d706c656d656e7465720000000000000000000000000000602082015250565b6000612ab9603283611bab565b9150612ac482612a5d565b604082019050919050565b60006020820190508181036000830152612ae881612aac565b9050919050565b7f4e487b7100000000000000000000000000000000000000000000000000000000600052601260045260246000fd5b600081519050919050565b600082825260208201905092915050565b6000612b4582612b1e565b612b4f8185612b29565b9350612b5f818560208601611bbc565b612b6881611be6565b840191505092915050565b6000608082019050612b886000830187611ce7565b612b956020830186611ce7565b612ba26040830185611e5e565b8181036060830152612bb48184612b3a565b905095945050505050565b600081519050612bce81611b11565b92915050565b600060208284031215612bea57612be9611adb565b5b6000612bf884828501612bbf565b91505092915050565b7f4552433732313a206d696e7420746f20746865207a65726f2061646472657373600082015250565b6000612c37602083611bab565b9150612c4282612c01565b602082019050919050565b60006020820190508181036000830152612c6681612c2a565b9050919050565b7f4552433732313a20746f6b656e20616c7265616479206d696e74656400000000600082015250565b6000612ca3601c83611bab565b9150612cae82612c6d565b602082019050919050565b60006020820190508181036000830152612cd281612c96565b905091905056fea26469706673582212205fbf98ea72f2e236d167f5719e4c649a575dafc6d09d7b28beda82faff4d8c3464736f6c63430008130033",
  "immutableReferences": {},
  "source": "// SPDX-License-Identifier: MIT\npragma solidity ^0.8.0;\n\nimport \"@openzeppelin/contracts/token/ERC721/ERC721.sol\";\n\ncontract MusicalNFT is ERC721 {\n    uint256 public tokenCounter;\n\n    constructor() ERC721(\"Moodify\", \"MOOD\") {\n        tokenCounter = 0;\n    }\n\n    struct Music {\n        string name;\n        string artist;\n        string image;\n        string ipfsHash;\n    }\n\n    mapping(uint256 => Music) public musicData;\n\n    function mintNFT(string memory _name, string memory _artist, string memory _image, string memory _ipfsHash) public {\n        uint256 newTokenId = tokenCounter;\n        musicData[newTokenId] = Music(_name, _artist, _image, _ipfsHash);\n        _safeMint(msg.sender, newTokenId);\n        tokenCounter++;\n    }\n}\n",
  "sourcePath": "/Users/nikku.jr.dev/Desktop/moodify/contracts/MusicNFT.sol",
  "compiler": {
    "name": "solc",
    "version": "0.8.19+commit.7dd6d404.Emscripten.clang"
  },
  "schemaVersion": "3.4.13",
  "updatedAt": "2023-05-02T11:10:22.403Z",
  "networkType": "ethereum",
  "devdoc": {
    "events": {
      "Approval(address,address,uint256)": {
        "details": "Emitted when `owner` enables `approved` to manage the `tokenId` token."
      },
      "ApprovalForAll(address,address,bool)": {
        "details": "Emitted when `owner` enables or disables (`approved`) `operator` to manage all of its assets."
      },
      "Transfer(address,address,uint256)": {
        "details": "Emitted when `tokenId` token is transferred from `from` to `to`."
      }
    },
    "kind": "dev",
    "methods": {
      "approve(address,uint256)": {
        "details": "See {IERC721-approve}."
      },
      "balanceOf(address)": {
        "details": "See {IERC721-balanceOf}."
      },
      "getApproved(uint256)": {
        "details": "See {IERC721-getApproved}."
      },
      "isApprovedForAll(address,address)": {
        "details": "See {IERC721-isApprovedForAll}."
      },
      "name()": {
        "details": "See {IERC721Metadata-name}."
      },
      "ownerOf(uint256)": {
        "details": "See {IERC721-ownerOf}."
      },
      "safeTransferFrom(address,address,uint256)": {
        "details": "See {IERC721-safeTransferFrom}."
      },
      "safeTransferFrom(address,address,uint256,bytes)": {
        "details": "See {IERC721-safeTransferFrom}."
      },
      "setApprovalForAll(address,bool)": {
        "details": "See {IERC721-setApprovalForAll}."
      },
      "supportsInterface(bytes4)": {
        "details": "See {IERC165-supportsInterface}."
      },
      "symbol()": {
        "details": "See {IERC721Metadata-symbol}."
      },
      "tokenURI(uint256)": {
        "details": "See {IERC721Metadata-tokenURI}."
      },
      "transferFrom(address,address,uint256)": {
        "details": "See {IERC721-transferFrom}."
      }
    },
    "version": 1
  },
  "userdoc": {
    "kind": "user",
    "methods": {},
    "version": 1
  }
}